:1000000045C0000060C000005EC000005CC0000091
:100010005AC0000058C0000056C0000054C0000084
:1000200052C0000050C000005EC000004CC0000084
:100030004AC0000048C0000046C0000044C00000A4
:1000400043C0000040C000003EC000003CC00000B3
:100050003AC0000038C0000036C0000034C00000C4
:1000600032C0000030C000002EC000002CC00000D4
:100070002AC0000028C0000026C0000024C00000E4
:1000800022C0000020C000001EC0000011241FBEBE
:10009000CFEFD0E1DEBFCDBF11E0A0E0B1E0E0E501
:1000A000F3E000E00BBF02C007900D92AE30B10745
:1000B000D9F721E0AEE0B1E001C01D92A731B2074F
:1000C000E1F720D043C19CCF1F920F920FB60F9241
:1000D00011248F9381E0809310018F910F900FBEB8
:1000E0000F901F9018951F920F920FB60F92112428
:1000F0008F9381E080930F018F910F900FBE0F902F
:100100001F9018958FEF8ABB81BB12B891E093B90D
:1001100082BB4091000150910101609102017091F8
:1001200003014093130150931401609315017093E0
:10013000160194E093BF82BF87B7816087BF85B502
:1001400085BD87B7806487BF7894EE24E394F12C53
:100150000F2EFAE08F2E912CA12CB12CF02D0EE257
:1001600011E066246A940F2EF5E07F2EF02D0F2EFD
:10017000F8ED5F2EF02D80911001882309F44BC01B
:100180001BBAC7010090120102C0880F991F0A9480
:10019000E2F7809582BB6091130170911401809108
:1001A000150190911601A501940192D0FB01EC5F1D
:1001B000FE4F80818BBB02BF6091130170911401CF
:1001C0008091150190911601A501940181D0209391
:1001D000130130931401409315015093160180913F
:1001E00012018F5F863019F08093120112C01092B5
:1001F00012018091000190910101A0910201B09142
:1002000003018093130190931401A0931501B093FF
:1002100016011092100121B18091110190E0212767
:100220002170C22F20E0D22F8C179D0729F085B5B1
:10023000811102C064BC75BC80910F01882309F450
:100240009ACF3091110121B1832F90E0212720FB1B
:10025000CC24C0F8D12C8C159D0539F080910E016D
:10026000880F816080930E0105C080910E01880F78
:1002700080930E0180910E018F3111F5812F311184
:1002800080E0809311013323B9F0809100019091B7
:100290000101A0910201B09103010097A105B105F0
:1002A00059F00197A109B1098093000190930101D0
:1002B000A0930201B093030115BC10920E0105C07A
:1002C000811102C015BC01C054BC10920F0153CF64
:1002D000052E97FB16F400940FD057FD05D014D0CF
:1002E00007FC02D046F408C0509540953095219502
:1002F0003F4F4F4F5F4F0895909580957095619552
:100300007F4F8F4F9F4F0895A1E21A2EAA1BBB1B50
:10031000FD010DC0AA1FBB1FEE1FFF1FA217B307D1
:10032000E407F50720F0A21BB30BE40BF50B661FE7
:10033000771F881F991F1A9469F7609570958095AB
:1003400090959B01AC01BD01CF010895F894FFCFBA
:0E03500050C300003F065B4F666D7D077F6F58
:00000001FF
