:1000000045C0000060C000005EC000005CC0000091
:100010005AC0000058C0000056C0000054C0000084
:1000200052C0000050C000004EC000004CC0000094
:100030004AC0000048C0000046C0000044C00000A4
:1000400016C1000040C000003EC000003CC00000DF
:100050003AC0000038C0000036C0000034C00000C4
:1000600032C0000030C000002EC000002CC00000D4
:100070002AC0000028C0000026C0000024C00000E4
:1000800022C0000020C000001EC0000011241FBEBE
:10009000CFEFD0E1DEBFCDBF11E0A0E0B1E0EEE1F7
:1000A000F4E000E00BBF02C007900D92AE30B10744
:1000B000D9F721E0AEE0B1E001C01D92A131B20755
:1000C000E1F7E4D0AAC19CCF4F925F926F927F92EA
:1000D0008F929F92AF92BF92CF92DF92EF92FF9258
:1000E0006B017C012AE030E040E050E058D129016A
:1000F0003A01FB01EC5FFE4F8081806882BBC70143
:10010000B60124E630E040E050E049D149015A010F
:10011000BA01A901440F551F661F771FDB01CA01F1
:10012000880F991FAA1FBB1F880F991FAA1FBB1FEB
:10013000840F951FA61FB71FA3019201281B390B1F
:100140004A0B5B0BF901EC5FFE4F808183B9C7015D
:10015000B60128EE33E040E050E021D129013A0118
:10016000BA01A901440F551F661F771FDB01CA01A1
:10017000880F991FAA1FBB1F880F991FAA1FBB1F9B
:10018000840F951FA61FB71FA5019401281B390BCB
:100190004A0B5B0BF901EC5FFE4F8081809362009C
:1001A000C701B60120E137E240E050E0F8D0490154
:1001B0005A01BA01A901440F551F661F771FDB01C1
:1001C000CA01880F991FAA1FBB1F880F991FAA1F5A
:1001D000BB1F840F951FA61FB71FA3019201281BE9
:1001E000390B4A0B5B0BF901EC5FFE4F808185BB3D
:1001F000C701B60120EA36E841E050E0D0D0BA01AC
:10020000A901440F551F661F771FDB01CA01880F24
:10021000991FAA1FBB1F880F991FAA1FBB1F840FFE
:10022000951FA61FB71FA5019401281B390B4A0B68
:100230005B0BF901EC5FFE4F808188BBC701B60103
:1002400020E432E44FE050E0AAD0F901EC5FFE4F29
:1002500080818BBBFF90EF90DF90CF90BF90AF90ED
:100260009F908F907F906F905F904F9008951F9216
:100270000F920FB60F9211248F9381E080930F019C
:100280008F910F900FBE0F901F9018958FEF8ABB24
:1002900087BB84BB9FE791BB82B98093610060916B
:1002A00000017091010180910201909103010CDF26
:1002B00087B7816087BF13BE7894EE24EA940F2E2F
:1002C000F7E0FF2EF02D0F2EF8EDDF2EF02DCC24D1
:1002D000C39480B32091100130E090E08095909518
:1002E00087FB442740F9C42F80E0D82F2C173D0707
:1002F00029F083B7811102C0E2BEF3BE80910F01E5
:10030000882339F32091100180B3422F50E090E010
:100310008095909587FB002700F910E04017510762
:1003200039F080910E01880F816080930E0105C025
:1003300080910E01880F80930E0180910E018F3104
:1003400031F58C2D211180E0809310012223D9F00A
:100350008091000190910101A0910201B0910301EF
:100360000097A105B10579F0BC01CD01615071097B
:10037000810991096093000170930101809302014A
:1003800090930301A1DE13BE10920E0105C08111EE
:1003900002C013BE01C0D2BE10920F019ACF052E2B
:1003A00097FB16F400940FD057FD05D014D007FC2E
:1003B00002D046F408C050954095309521953F4FA6
:1003C0004F4F5F4F089590958095709561957F4F41
:1003D0008F4F9F4F0895A1E21A2EAA1BBB1BFD0150
:1003E0000DC0AA1FBB1FEE1FFF1FA217B307E40714
:1003F000F50720F0A21BB30BE40BF50B661F771F6C
:10040000881F991F1A9469F760957095809590954B
:0E0410009B01AC01BD01CF010895F894FFCF10
:0E041E0050C300003F065B4F666D7D077F6F89
:00000001FF
